{
  "contractName": "AgeVerification",
  "abi": [
    {
      "inputs": [
        {
          "internalType": "string",
          "name": "_name",
          "type": "string"
        },
        {
          "internalType": "uint256",
          "name": "_birthYear",
          "type": "uint256"
        }
      ],
      "name": "registerUser",
      "outputs": [],
      "stateMutability": "nonpayable",
      "type": "function"
    },
    {
      "inputs": [
        {
          "internalType": "address",
          "name": "_user",
          "type": "address"
        }
      ],
      "name": "isEligible",
      "outputs": [
        {
          "internalType": "bool",
          "name": "",
          "type": "bool"
        }
      ],
      "stateMutability": "view",
      "type": "function"
    },
    {
      "inputs": [
        {
          "internalType": "address",
          "name": "_user",
          "type": "address"
        }
      ],
      "name": "getUser",
      "outputs": [
        {
          "internalType": "string",
          "name": "",
          "type": "string"
        },
        {
          "internalType": "uint256",
          "name": "",
          "type": "uint256"
        }
      ],
      "stateMutability": "view",
      "type": "function"
    }
  ],
  "bytecode": "0x608060405234801561001057600080fd5b50610838806100206000396000f3fe608060405234801561001057600080fd5b50600436106100415760003560e01c806366e305fd146100465780636f77926b14610076578063d3951002146100a7575b600080fd5b610060600480360381019061005b91906103f4565b6100c3565b60405161006d91906104c8565b60405180910390f35b610090600480360381019061008b91906103f4565b61013e565b60405161009e9291906104e3565b60405180910390f35b6100c160048036038101906100bc919061041d565b61023e565b005b6000806107b26301e18558426100d991906105e6565b6100e39190610590565b905060126000808573ffffffffffffffffffffffffffffffffffffffff1673ffffffffffffffffffffffffffffffffffffffff16815260200190815260200160002060010154826101349190610617565b1015915050919050565b60606000806000808573ffffffffffffffffffffffffffffffffffffffff1673ffffffffffffffffffffffffffffffffffffffff16815260200190815260200160002060405180604001604052908160008201805461019c906106d5565b80601f01602080910402602001604051908101604052809291908181526020018280546101c8906106d5565b80156102155780601f106101ea57610100808354040283529160200191610215565b820191906000526020600020905b8154815290600101906020018083116101f857829003601f168201915b505050505081526020016001820154815250509050806000015181602001519250925050915091565b6040518060400160405280838152602001828152506000803373ffffffffffffffffffffffffffffffffffffffff1673ffffffffffffffffffffffffffffffffffffffff16815260200190815260200160002060008201518160000190805190602001906102ad9291906102bf565b50602082015181600101559050505050565b8280546102cb906106d5565b90600052602060002090601f0160209004810192826102ed5760008555610334565b82601f1061030657805160ff1916838001178555610334565b82800160010185558215610334579182015b82811115610333578251825591602001919060010190610318565b5b5090506103419190610345565b5090565b5b8082111561035e576000816000905550600101610346565b5090565b600061037561037084610544565b610513565b90508281526020810184848401111561038d57600080fd5b610398848285610693565b509392505050565b6000813590506103af816107d4565b92915050565b600082601f8301126103c657600080fd5b81356103d6848260208601610362565b91505092915050565b6000813590506103ee816107eb565b92915050565b60006020828403121561040657600080fd5b6000610414848285016103a0565b91505092915050565b6000806040838503121561043057600080fd5b600083013567ffffffffffffffff81111561044a57600080fd5b610456858286016103b5565b9250506020610467858286016103df565b9150509250929050565b61047a8161065d565b82525050565b600061048b82610574565b610495818561057f565b93506104a58185602086016106a2565b6104ae816107c3565b840191505092915050565b6104c281610689565b82525050565b60006020820190506104dd6000830184610471565b92915050565b600060408201905081810360008301526104fd8185610480565b905061050c60208301846104b9565b9392505050565b6000604051905081810181811067ffffffffffffffff8211171561053a57610539610794565b5b8060405250919050565b600067ffffffffffffffff82111561055f5761055e610794565b5b601f19601f8301169050602081019050919050565b600081519050919050565b600082825260208201905092915050565b600061059b82610689565b91506105a683610689565b9250827fffffffffffffffffffffffffffffffffffffffffffffffffffffffffffffffff038211156105db576105da610707565b5b828201905092915050565b60006105f182610689565b91506105fc83610689565b92508261060c5761060b610736565b5b828204905092915050565b600061062282610689565b915061062d83610689565b9250828210156106405761063f610707565b5b828203905092915050565b600061065682610669565b9050919050565b60008115159050919050565b600073ffffffffffffffffffffffffffffffffffffffff82169050919050565b6000819050919050565b82818337600083830152505050565b60005b838110156106c05780820151818401526020810190506106a5565b838111156106cf576000848401525b50505050565b600060028204905060018216806106ed57607f821691505b6020821081141561070157610700610765565b5b50919050565b7f4e487b7100000000000000000000000000000000000000000000000000000000600052601160045260246000fd5b7f4e487b7100000000000000000000000000000000000000000000000000000000600052601260045260246000fd5b7f4e487b7100000000000000000000000000000000000000000000000000000000600052602260045260246000fd5b7f4e487b7100000000000000000000000000000000000000000000000000000000600052604160045260246000fd5b6000601f19601f8301169050919050565b6107dd8161064b565b81146107e857600080fd5b50565b6107f481610689565b81146107ff57600080fd5b5056fea26469706673582212208c6583a90821f7ab021a79fefd590c9e19c6cc3bf7c5ce62fff1a6e501225f1c64736f6c63430008000033",
  "immutableReferences": {},
  "source": "// SPDX-License-Identifier: MIT\r\npragma solidity ^0.8.0;\r\n\r\ncontract AgeVerification {\r\n    struct User {\r\n        string name;\r\n        uint256 birthYear;\r\n    }\r\n\r\n    mapping(address => User) private users;\r\n\r\n    function registerUser(string memory _name, uint256 _birthYear) public {\r\n        users[msg.sender] = User(_name, _birthYear);\r\n    }\r\n\r\n    function isEligible(address _user) public view returns (bool) {\r\n        uint256 currentYear = block.timestamp / 31556952 + 1970;\r\n        return currentYear - users[_user].birthYear >= 18;\r\n    }\r\n\r\n    function getUser(address _user) public view returns (string memory, uint256) {\r\n        User memory user = users[_user];\r\n        return (user.name, user.birthYear);\r\n    }\r\n}\r\n",
  "sourcePath": "E:\\BE\\3\\Blockchain\\Project\\AgeVerificationSystem\\contracts\\AgeVerification.sol",
  "compiler": {
    "name": "solc",
    "version": "0.8.0+commit.c7dfd78e.Emscripten.clang"
  },
  "schemaVersion": "3.4.16",
  "updatedAt": "2024-06-12T16:11:22.038Z",
  "devdoc": {
    "kind": "dev",
    "methods": {},
    "version": 1
  },
  "userdoc": {
    "kind": "user",
    "methods": {},
    "version": 1
  }
}