{
  "contractName": "AgeVerification",
  "abi": [
    {
      "anonymous": false,
      "inputs": [
        {
          "indexed": false,
          "internalType": "string",
          "name": "username",
          "type": "string"
        },
        {
          "indexed": false,
          "internalType": "string",
          "name": "name",
          "type": "string"
        },
        {
          "indexed": false,
          "internalType": "uint256",
          "name": "birthYear",
          "type": "uint256"
        }
      ],
      "name": "UserRegistered",
      "type": "event"
    },
    {
      "inputs": [
        {
          "internalType": "string",
          "name": "_username",
          "type": "string"
        },
        {
          "internalType": "string",
          "name": "_name",
          "type": "string"
        },
        {
          "internalType": "uint256",
          "name": "_birthYear",
          "type": "uint256"
        }
      ],
      "name": "registerUser",
      "outputs": [],
      "stateMutability": "nonpayable",
      "type": "function"
    },
    {
      "inputs": [
        {
          "internalType": "string",
          "name": "_username",
          "type": "string"
        }
      ],
      "name": "isEligible",
      "outputs": [
        {
          "internalType": "bool",
          "name": "",
          "type": "bool"
        }
      ],
      "stateMutability": "view",
      "type": "function",
      "constant": true
    },
    {
      "inputs": [
        {
          "internalType": "string",
          "name": "_username",
          "type": "string"
        }
      ],
      "name": "getUser",
      "outputs": [
        {
          "internalType": "string",
          "name": "",
          "type": "string"
        },
        {
          "internalType": "uint256",
          "name": "",
          "type": "uint256"
        }
      ],
      "stateMutability": "view",
      "type": "function",
      "constant": true
    },
    {
      "inputs": [
        {
          "internalType": "string",
          "name": "_username",
          "type": "string"
        }
      ],
      "name": "isUserRegistered",
      "outputs": [
        {
          "internalType": "bool",
          "name": "",
          "type": "bool"
        }
      ],
      "stateMutability": "view",
      "type": "function",
      "constant": true
    }
  ],
  "bytecode": "0x608060405234801561001057600080fd5b50610a59806100206000396000f3fe608060405234801561001057600080fd5b506004361061004c5760003560e01c8063081c8a7b1461005157806331feb67114610081578063a8cc7784146100b2578063f209e74f146100e2575b600080fd5b61006b60048036038101906100669190610523565b6100fe565b60405161007891906106c2565b60405180910390f35b61009b60048036038101906100969190610523565b6101c7565b6040516100a9929190610722565b60405180910390f35b6100cc60048036038101906100c79190610523565b610306565b6040516100d991906106c2565b60405180910390f35b6100fc60048036038101906100f79190610564565b61033d565b005b6000808260405161010f91906106ab565b908152602001604051809103902060020160009054906101000a900460ff1661016d576040517f08c379a000000000000000000000000000000000000000000000000000000000815260040161016490610752565b60405180910390fd5b60006107b26301e18558426101829190610850565b61018c91906107fa565b905060126000846040516101a091906106ab565b908152602001604051809103902060010154826101bd9190610881565b1015915050919050565b60606000806000846040516101dc91906106ab565b90815260200160405180910390206040518060600160405290816000820180546102059061090d565b80601f01602080910402602001604051908101604052809291908181526020018280546102319061090d565b801561027e5780601f106102535761010080835404028352916020019161027e565b820191906000526020600020905b81548152906001019060200180831161026157829003601f168201915b50505050508152602001600182015481526020016002820160009054906101000a900460ff161515151581525050905080604001516102f2576040517f08c379a00000000000000000000000000000000000000000000000000000000081526004016102e990610752565b60405180910390fd5b806000015181602001519250925050915091565b6000808260405161031791906106ab565b908152602001604051809103902060020160009054906101000a900460ff169050919050565b60405180606001604052808381526020018281526020016001151581525060008460405161036b91906106ab565b90815260200160405180910390206000820151816000019080519060200190610395929190610403565b506020820151816001015560408201518160020160006101000a81548160ff0219169083151502179055509050507f3548c0edb8b19c83f37873107ad6ca5e5083cf1f072f91c8250e1264bc80c2228383836040516103f6939291906106dd565b60405180910390a1505050565b82805461040f9061090d565b90600052602060002090601f0160209004810192826104315760008555610478565b82601f1061044a57805160ff1916838001178555610478565b82800160010185558215610478579182015b8281111561047757825182559160200191906001019061045c565b5b5090506104859190610489565b5090565b5b808211156104a257600081600090555060010161048a565b5090565b60006104b96104b4846107a3565b610772565b9050828152602081018484840111156104d157600080fd5b6104dc8482856108cb565b509392505050565b600082601f8301126104f557600080fd5b81356105058482602086016104a6565b91505092915050565b60008135905061051d81610a0c565b92915050565b60006020828403121561053557600080fd5b600082013567ffffffffffffffff81111561054f57600080fd5b61055b848285016104e4565b91505092915050565b60008060006060848603121561057957600080fd5b600084013567ffffffffffffffff81111561059357600080fd5b61059f868287016104e4565b935050602084013567ffffffffffffffff8111156105bc57600080fd5b6105c8868287016104e4565b92505060406105d98682870161050e565b9150509250925092565b6105ec816108b5565b82525050565b60006105fd826107d3565b61060781856107de565b93506106178185602086016108da565b610620816109fb565b840191505092915050565b6000610636826107d3565b61064081856107ef565b93506106508185602086016108da565b80840191505092915050565b60006106696013836107de565b91507f5573657220646f6573206e6f74206578697374000000000000000000000000006000830152602082019050919050565b6106a5816108c1565b82525050565b60006106b7828461062b565b915081905092915050565b60006020820190506106d760008301846105e3565b92915050565b600060608201905081810360008301526106f781866105f2565b9050818103602083015261070b81856105f2565b905061071a604083018461069c565b949350505050565b6000604082019050818103600083015261073c81856105f2565b905061074b602083018461069c565b9392505050565b6000602082019050818103600083015261076b8161065c565b9050919050565b6000604051905081810181811067ffffffffffffffff82111715610799576107986109cc565b5b8060405250919050565b600067ffffffffffffffff8211156107be576107bd6109cc565b5b601f19601f8301169050602081019050919050565b600081519050919050565b600082825260208201905092915050565b600081905092915050565b6000610805826108c1565b9150610810836108c1565b9250827fffffffffffffffffffffffffffffffffffffffffffffffffffffffffffffffff038211156108455761084461093f565b5b828201905092915050565b600061085b826108c1565b9150610866836108c1565b9250826108765761087561096e565b5b828204905092915050565b600061088c826108c1565b9150610897836108c1565b9250828210156108aa576108a961093f565b5b828203905092915050565b60008115159050919050565b6000819050919050565b82818337600083830152505050565b60005b838110156108f85780820151818401526020810190506108dd565b83811115610907576000848401525b50505050565b6000600282049050600182168061092557607f821691505b602082108114156109395761093861099d565b5b50919050565b7f4e487b7100000000000000000000000000000000000000000000000000000000600052601160045260246000fd5b7f4e487b7100000000000000000000000000000000000000000000000000000000600052601260045260246000fd5b7f4e487b7100000000000000000000000000000000000000000000000000000000600052602260045260246000fd5b7f4e487b7100000000000000000000000000000000000000000000000000000000600052604160045260246000fd5b6000601f19601f8301169050919050565b610a15816108c1565b8114610a2057600080fd5b5056fea2646970667358221220be0ec2a507cb7ac71e754bc7b593250a7a618c62eb6147ef259117b5d9c4486264736f6c63430008000033",
  "immutableReferences": {},
  "source": "// SPDX-License-Identifier: MIT\r\npragma solidity ^0.8.0;\r\n\r\ncontract AgeVerification {\r\n    struct User {\r\n        string name;\r\n        uint256 birthYear;\r\n        bool exists;\r\n    }\r\n\r\n    mapping(string => User) private users;\r\n\r\n    event UserRegistered(string username, string name, uint256 birthYear);\r\n\r\n    function registerUser(string memory _username, string memory _name, uint256 _birthYear) public {\r\n        users[_username] = User(_name, _birthYear, true);\r\n        emit UserRegistered(_username, _name, _birthYear);\r\n    }\r\n\r\n    function isEligible(string memory _username) public view returns (bool) {\r\n        require(users[_username].exists, \"User does not exist\");\r\n        uint256 currentYear = block.timestamp / 31556952 + 1970;\r\n        return currentYear - users[_username].birthYear >= 18;\r\n    }\r\n\r\n    function getUser(string memory _username) public view returns (string memory, uint256) {\r\n        User memory user = users[_username];\r\n        require(user.exists, \"User does not exist\");\r\n        return (user.name, user.birthYear);\r\n    }\r\n\r\n    function isUserRegistered(string memory _username) public view returns (bool) {\r\n        return users[_username].exists;\r\n    }\r\n}\r\n",
  "sourcePath": "E:\\BE\\3\\Blockchain\\Project\\AgeVerificationSystem\\contracts\\AgeVerification.sol",
  "compiler": {
    "name": "solc",
    "version": "0.8.0+commit.c7dfd78e.Emscripten.clang"
  },
  "schemaVersion": "3.4.16",
  "updatedAt": "2024-06-12T16:41:45.752Z",
  "networkType": "ethereum",
  "devdoc": {
    "kind": "dev",
    "methods": {},
    "version": 1
  },
  "userdoc": {
    "kind": "user",
    "methods": {},
    "version": 1
  }
}